:1000000012C02CC02BC02AC029C028C027C026C0BF
:1000100025C024C023C03CC221C020C01FC01EC0B8
:100020001DC01CC01BC011241FBECFE5D4E0DEBF25
:10003000CDBF11E0A0E6B0E0EEE7F5E002C005902C
:100040000D92AC30B107D9F721E0ACE0B1E001C0CE
:100050001D92A031B207E1F7DAD18FC2D1CF98B3A8
:10006000282F22952F70907F922B98BBC598C49A09
:10007000EFE8F1E03197F1F700C00000C498EFEA33
:10008000F4E03197F1F700C0000098B38F70907FD3
:10009000892B88BBC49A8FEA94E00197F1F700C0DE
:1000A0000000C498089598B3282F22952F70907F50
:1000B000922B98BBC59AC49AEFE1F3E03197F1F720
:1000C00000C00000C498EFE1F3E03197F1F700C001
:1000D000000098B38F70907F892B88BBC49A8FE102
:1000E00093E00197F1F700C00000C498089587B32A
:1000F0008F6387BBC4982FEF83EC99E02150804039
:100100009040E1F700C0000083E3A9DF2FEF89EF03
:1001100090E0215080409040E1F700C0000082E371
:100120009EDF2FEF89EF90E0215080409040E1F773
:1001300000C0000088E293DF2FEF89EF90E02150AC
:1001400080409040E1F700C000008EE088DF2FEF94
:1001500089EF90E0215080409040E1F700C000001E
:1001600081E07DDF2FEF89EF90E0215080409040CB
:10017000E1F700C00000089581E071DF8FE39FE1A7
:100180000197F1F700C0000008951F93CF93DF930C
:10019000EC018881882379F010E085DF1F5F8FE113
:1001A0009EE40197F1F700C00000FE01E10FF11D90
:1001B00080818111F2CFDF91CF911F91089581301D
:1001C00021F4862F81584BDF0895823019F4862F51
:1001D000815445DF0895CF93DF93C82FDDEC8D9FC9
:1001E000D12D1124D695D695D6958D2F805D5BDFC8
:1001F000DD0F8D2F880F880FD80F8C2F8D1B805D02
:1002000052DFDF91CF9108958FEF81BB089588E988
:100210008AB986E880BD87E689B908955D9BFECFDF
:100220008CB908951F93CF93DF93EC0188818823C5
:1002300079F010E0F3DF1F5F8FE19EE40197F1F7A3
:1002400000C00000FE01E10FF11D80818111F2CF9D
:10025000DF91CF911F91089587E886B980EE87B925
:10026000369A349BFECF349A85B180930C01089561
:1002700087E886B981EC87B9369A349BFECF349AE9
:1002800084B195B180930E010895929A83E690E02F
:10029000C9DF61E082E093DF80E690E076DF2FEF58
:1002A00087EA91E6215080409040E1F700C00000CD
:1002B000089582B3837082BB8DE690E0B3DF61E086
:1002C00082E07DDF8AE690E060DF2FEF87EA91E64B
:1002D000215080409040E1F700C000000895939ABB
:1002E00088E790E09FDF61E082E069DF85E790E0EA
:1002F0004CDF2FEF87EA91E6215080409040E1F7F4
:1003000000C00000089582B3837082BB84E890E04F
:1003100089DF61E082E053DF81E890E036DF2FEF94
:1003200087EA91E6215080409040E1F700C000004C
:10033000089580910F01813609F068C078948EE8A5
:1003400090E070DF61E082E03ADF83EA90E01DDF59
:100350002FEF87EA91E6215080409040E1F700C0FE
:10036000000080910D018130E9F176DF75DF80DFDB
:100370007FDF80910C018A3128F0929AFDDE80E6C1
:1003800090E003DF80910C01883138F482B38B70E8
:1003900082BBF2DE8AE690E0F8DE80910E018639BB
:1003A00058F0939A61E082E00ADF85E790E0EDDEA5
:1003B00080910E01863948F482B3877082BB61E078
:1003C00082E0FDDE81E890E0E0DE2FEF87EA91E653
:1003D000215080409040E1F700C0000080910D0165
:1003E000813019F610920D018FEA90E01BDF61E079
:1003F00082E0E5DE87EC90E0C8DE2FEF87EA91E649
:10040000215080409040E1F700C000000895109214
:100410000D018CEF81BBF8DE6ADEAEDE8CE01FDE04
:1004200084ED90E0B2DE61E082E0C9DE80EE90E033
:10043000ACDE2FEF87EA91E6215080409040E1F753
:1004400000C00000E4DE8FE39CE90197F1F700C0F3
:10045000000078948EEE90E0E5DE8EDEFDDEFCDEC0
:1004600007DF06DF86EF90E090DE80910C01B3DEBF
:100470008FED19DE83E417DE9FEF23ED80E39150CB
:1004800020408040E1F700C0000076DE7894E6CF9F
:100490001F920F920FB60F9211242F933F934F93F9
:1004A0005F936F937F938F939F93AF93BF93EF93DC
:1004B000FF938CB180930F01813649F45DDE8CEFA0
:1004C00090E063DE80910F01EEDDF89432DF8091E1
:1004D0000F01813459F450DE8CEF90E056DE8091AC
:1004E0000F01E1DDF89481E080930D0180910F010F
:1004F000863649F441DE8CEF90E047DE80910F01B3
:10050000D2DDF894C2DE80910F018C3649F434DEDE
:100510008CEF90E03ADE80910F01C5DDF894DFDECC
:1005200080910F01863449F427DE8CEF90E02DDEB8
:1005300080910F01B8DDF894BCDE80910F018C34FE
:1005400049F41ADE8CEF90E020DE80910F01ABDDE4
:10055000DADE02C0F8947894FF91EF91BF91AF91E9
:100560009F918F917F916F915F914F913F912F91CB
:0E0570000F900FBE0F901F901895F894FFCFBC
:10057E0020202046414E204F4E0020202046414E46
:10058E00204F4646002020204C49474854204F4ECD
:10059E00002020204C49474854204F4646005379AE
:1005AE007374656D20696E206175746F206D6F6454
:1005BE0065210020204175746F204D6F64650053D6
:1005CE00797374656D20696E206D616E6E75616CE8
:1005DE00206D6F646521004D616E6E75616C204DEE
:1005EE006F64650020202068656C6C6F21212100EE
:1005FE0020202057656C636F6D65212121004865B1
:10060E006C6C6F21210054656D703A005265636504
:0C061E006976656420636861723D00002D
:00000001FF
